{
  "contractName": "NFTPortfolio",
  "abi": [
    {
      "inputs": [],
      "stateMutability": "nonpayable",
      "type": "constructor"
    },
    {
      "inputs": [
        {
          "internalType": "address",
          "name": "",
          "type": "address"
        }
      ],
      "name": "aliceBalance",
      "outputs": [
        {
          "internalType": "uint256",
          "name": "",
          "type": "uint256"
        }
      ],
      "stateMutability": "view",
      "type": "function"
    },
    {
      "inputs": [
        {
          "internalType": "address",
          "name": "",
          "type": "address"
        }
      ],
      "name": "axsBalance",
      "outputs": [
        {
          "internalType": "uint256",
          "name": "",
          "type": "uint256"
        }
      ],
      "stateMutability": "view",
      "type": "function"
    },
    {
      "inputs": [],
      "name": "currentRate",
      "outputs": [
        {
          "internalType": "uint256",
          "name": "numerator",
          "type": "uint256"
        },
        {
          "internalType": "uint256",
          "name": "denominator",
          "type": "uint256"
        }
      ],
      "stateMutability": "view",
      "type": "function"
    },
    {
      "inputs": [
        {
          "internalType": "address",
          "name": "",
          "type": "address"
        }
      ],
      "name": "mboxBalance",
      "outputs": [
        {
          "internalType": "uint256",
          "name": "",
          "type": "uint256"
        }
      ],
      "stateMutability": "view",
      "type": "function"
    },
    {
      "inputs": [
        {
          "internalType": "address",
          "name": "",
          "type": "address"
        }
      ],
      "name": "mcBalance",
      "outputs": [
        {
          "internalType": "uint256",
          "name": "",
          "type": "uint256"
        }
      ],
      "stateMutability": "view",
      "type": "function"
    },
    {
      "inputs": [],
      "name": "nftToken",
      "outputs": [
        {
          "internalType": "contract IToken",
          "name": "",
          "type": "address"
        }
      ],
      "stateMutability": "view",
      "type": "function"
    },
    {
      "inputs": [],
      "name": "pancakeSwapRouter",
      "outputs": [
        {
          "internalType": "contract IPancakeRouter02",
          "name": "",
          "type": "address"
        }
      ],
      "stateMutability": "view",
      "type": "function"
    },
    {
      "inputs": [
        {
          "internalType": "address",
          "name": "",
          "type": "address"
        }
      ],
      "name": "racaBalance",
      "outputs": [
        {
          "internalType": "uint256",
          "name": "",
          "type": "uint256"
        }
      ],
      "stateMutability": "view",
      "type": "function"
    },
    {
      "stateMutability": "payable",
      "type": "receive"
    },
    {
      "inputs": [
        {
          "internalType": "uint256",
          "name": "_numerator",
          "type": "uint256"
        },
        {
          "internalType": "uint256",
          "name": "_denominator",
          "type": "uint256"
        }
      ],
      "name": "updateRate",
      "outputs": [],
      "stateMutability": "nonpayable",
      "type": "function"
    },
    {
      "inputs": [
        {
          "internalType": "uint256",
          "name": "axs",
          "type": "uint256"
        },
        {
          "internalType": "uint256",
          "name": "race",
          "type": "uint256"
        },
        {
          "internalType": "uint256",
          "name": "mbox",
          "type": "uint256"
        },
        {
          "internalType": "uint256",
          "name": "mc",
          "type": "uint256"
        },
        {
          "internalType": "uint256",
          "name": "alice",
          "type": "uint256"
        },
        {
          "internalType": "address",
          "name": "user",
          "type": "address"
        }
      ],
      "name": "setUpDataNFT",
      "outputs": [],
      "stateMutability": "nonpayable",
      "type": "function"
    },
    {
      "inputs": [],
      "name": "investInFundNFT",
      "outputs": [],
      "stateMutability": "payable",
      "type": "function"
    },
    {
      "inputs": [
        {
          "internalType": "uint256",
          "name": "tokenAmount",
          "type": "uint256"
        }
      ],
      "name": "withdrawFromFundNFT",
      "outputs": [],
      "stateMutability": "payable",
      "type": "function"
    },
    {
      "inputs": [
        {
          "internalType": "address",
          "name": "crypto",
          "type": "address"
        }
      ],
      "name": "getPathForETH",
      "outputs": [
        {
          "internalType": "address[]",
          "name": "",
          "type": "address[]"
        }
      ],
      "stateMutability": "view",
      "type": "function"
    },
    {
      "inputs": [
        {
          "internalType": "address",
          "name": "token",
          "type": "address"
        }
      ],
      "name": "getPathForToken",
      "outputs": [
        {
          "internalType": "address[]",
          "name": "",
          "type": "address[]"
        }
      ],
      "stateMutability": "view",
      "type": "function"
    },
    {
      "inputs": [],
      "name": "getETH",
      "outputs": [
        {
          "internalType": "address",
          "name": "",
          "type": "address"
        }
      ],
      "stateMutability": "view",
      "type": "function"
    }
  ],
  "bytecode": "0x6080604052736056773c28c258425cf9bc8ba5f86b8031863164600160006101000a81548173ffffffffffffffffffffffffffffffffffffffff021916908373ffffffffffffffffffffffffffffffffffffffff16021790555073715d400f88c167884bbcc41c5fea407ed4d2f8a0600360006101000a81548173ffffffffffffffffffffffffffffffffffffffff021916908373ffffffffffffffffffffffffffffffffffffffff1602179055507312bb890508c125661e03b09ec06e404bc9289040600460006101000a81548173ffffffffffffffffffffffffffffffffffffffff021916908373ffffffffffffffffffffffffffffffffffffffff160217905550733203c9e46ca618c8c1ce5dc67e7e9d75f5da2377600560006101000a81548173ffffffffffffffffffffffffffffffffffffffff021916908373ffffffffffffffffffffffffffffffffffffffff16021790555073949d48eca67b17269629c7194f4b727d4ef9e5d6600660006101000a81548173ffffffffffffffffffffffffffffffffffffffff021916908373ffffffffffffffffffffffffffffffffffffffff16021790555073ac51066d7bec65dc4589368da368b212745d63e8600760006101000a81548173ffffffffffffffffffffffffffffffffffffffff021916908373ffffffffffffffffffffffffffffffffffffffff16021790555034801561020e57600080fd5b507310ed43c718714eb63d5aa57b78b54704e256024e6000806101000a81548173ffffffffffffffffffffffffffffffffffffffff021916908373ffffffffffffffffffffffffffffffffffffffff1602179055507316dbb234a9a595967ddc2ea1bb53379752f09ad4600260006101000a81548173ffffffffffffffffffffffffffffffffffffffff021916908373ffffffffffffffffffffffffffffffffffffffff160217905550612c5b806102c76000396000f3fe6080604052600436106100ec5760003560e01c8063b0849c1c1161008a578063d1d563c711610059578063d1d563c714610306578063f9f8bdb714610322578063fbf1a7dd1461034e578063fdcc1f0d1461038b576100f3565b8063b0849c1c14610238578063b2bd43ed14610275578063ca0e7ed51461029e578063d06fcba8146102db576100f3565b8063405abb41116100c6578063405abb411461018b578063500846ca146101b45780638149741c146101f157806382eacc28146101fb576100f3565b806314f6c3be146100f857806324558995146101235780633fe5496d1461014e576100f3565b366100f357005b600080fd5b34801561010457600080fd5b5061010d6103c8565b60405161011a91906126c3565b60405180910390f35b34801561012f57600080fd5b5061013861046e565b6040516101459190612760565b60405180910390f35b34801561015a57600080fd5b50610175600480360381019061017091906122c6565b610492565b6040516101829190612842565b60405180910390f35b34801561019757600080fd5b506101b260048036038101906101ad91906123ab565b6104aa565b005b3480156101c057600080fd5b506101db60048036038101906101d691906122c6565b6104de565b6040516101e89190612842565b60405180910390f35b6101f96104f6565b005b34801561020757600080fd5b50610222600480360381019061021d91906122c6565b610df5565b60405161022f9190612842565b60405180910390f35b34801561024457600080fd5b5061025f600480360381019061025a91906122c6565b610e0d565b60405161026c919061273e565b60405180910390f35b34801561028157600080fd5b5061029c600480360381019061029791906123e7565b611013565b005b3480156102aa57600080fd5b506102c560048036038101906102c091906122c6565b6112e1565b6040516102d2919061273e565b60405180910390f35b3480156102e757600080fd5b506102f06114e7565b6040516102fd919061277b565b60405180910390f35b610320600480360381019061031b9190612382565b61150d565b005b34801561032e57600080fd5b50610337611eea565b6040516103459291906128b7565b60405180910390f35b34801561035a57600080fd5b50610375600480360381019061037091906122c6565b611efc565b6040516103829190612842565b60405180910390f35b34801561039757600080fd5b506103b260048036038101906103ad91906122c6565b611f14565b6040516103bf9190612842565b60405180910390f35b60008060009054906101000a900473ffffffffffffffffffffffffffffffffffffffff1673ffffffffffffffffffffffffffffffffffffffff1663ad5c46486040518163ffffffff1660e01b815260040160206040518083038186803b15801561043157600080fd5b505afa158015610445573d6000803e3d6000fd5b505050506040513d601f19601f8201168201806040525081019061046991906122ef565b905090565b60008054906101000a900473ffffffffffffffffffffffffffffffffffffffff1681565b600b6020528060005260406000206000915090505481565b60008214156104b857600080fd5b60008114156104c657600080fd5b81600e6000018190555080600e600101819055505050565b600c6020528060005260406000206000915090505481565b600260009054906101000a900473ffffffffffffffffffffffffffffffffffffffff1673ffffffffffffffffffffffffffffffffffffffff1663095ea7b330346040518363ffffffff1660e01b8152600401610553929190612715565b602060405180830381600087803b15801561056d57600080fd5b505af1158015610581573d6000803e3d6000fd5b505050506040513d601f19601f820116820180604052508101906105a59190612359565b506105b16064806104aa565b60608060608060606000600f426105c8919061299d565b905060008054906101000a900473ffffffffffffffffffffffffffffffffffffffff1673ffffffffffffffffffffffffffffffffffffffff16637ff36ab560053461061391906129f3565b6000610640600360009054906101000a900473ffffffffffffffffffffffffffffffffffffffff16610e0d565b600160009054906101000a900473ffffffffffffffffffffffffffffffffffffffff16866040518663ffffffff1660e01b81526004016106839493929190612796565b6000604051808303818588803b15801561069c57600080fd5b505af11580156106b0573d6000803e3d6000fd5b50505050506040513d6000823e3d601f19601f820116820180604052508101906106da9190612318565b955060008054906101000a900473ffffffffffffffffffffffffffffffffffffffff1673ffffffffffffffffffffffffffffffffffffffff16637ff36ab560053461072591906129f3565b6000610752600460009054906101000a900473ffffffffffffffffffffffffffffffffffffffff16610e0d565b600160009054906101000a900473ffffffffffffffffffffffffffffffffffffffff16866040518663ffffffff1660e01b81526004016107959493929190612796565b6000604051808303818588803b1580156107ae57600080fd5b505af11580156107c2573d6000803e3d6000fd5b50505050506040513d6000823e3d601f19601f820116820180604052508101906107ec9190612318565b945060008054906101000a900473ffffffffffffffffffffffffffffffffffffffff1673ffffffffffffffffffffffffffffffffffffffff16637ff36ab560053461083791906129f3565b6000610864600560009054906101000a900473ffffffffffffffffffffffffffffffffffffffff16610e0d565b600160009054906101000a900473ffffffffffffffffffffffffffffffffffffffff16866040518663ffffffff1660e01b81526004016108a79493929190612796565b6000604051808303818588803b1580156108c057600080fd5b505af11580156108d4573d6000803e3d6000fd5b50505050506040513d6000823e3d601f19601f820116820180604052508101906108fe9190612318565b935060008054906101000a900473ffffffffffffffffffffffffffffffffffffffff1673ffffffffffffffffffffffffffffffffffffffff16637ff36ab560053461094991906129f3565b6000610976600660009054906101000a900473ffffffffffffffffffffffffffffffffffffffff16610e0d565b600160009054906101000a900473ffffffffffffffffffffffffffffffffffffffff16866040518663ffffffff1660e01b81526004016109b99493929190612796565b6000604051808303818588803b1580156109d257600080fd5b505af11580156109e6573d6000803e3d6000fd5b50505050506040513d6000823e3d601f19601f82011682018060405250810190610a109190612318565b925060008054906101000a900473ffffffffffffffffffffffffffffffffffffffff1673ffffffffffffffffffffffffffffffffffffffff16637ff36ab5600534610a5b91906129f3565b6000610a88600760009054906101000a900473ffffffffffffffffffffffffffffffffffffffff16610e0d565b600160009054906101000a900473ffffffffffffffffffffffffffffffffffffffff16866040518663ffffffff1660e01b8152600401610acb9493929190612796565b6000604051808303818588803b158015610ae457600080fd5b505af1158015610af8573d6000803e3d6000fd5b50505050506040513d6000823e3d601f19601f82011682018060405250810190610b229190612318565b9150610c7786600181518110610b61577f4e487b7100000000000000000000000000000000000000000000000000000000600052603260045260246000fd5b602002602001015186600181518110610ba3577f4e487b7100000000000000000000000000000000000000000000000000000000600052603260045260246000fd5b602002602001015186600181518110610be5577f4e487b7100000000000000000000000000000000000000000000000000000000600052603260045260246000fd5b602002602001015186600181518110610c27577f4e487b7100000000000000000000000000000000000000000000000000000000600052603260045260246000fd5b602002602001015186600181518110610c69577f4e487b7100000000000000000000000000000000000000000000000000000000600052603260045260246000fd5b602002602001015133611013565b60003490506000610cad600e60010154610c9f600e6000015485611f2c90919063ffffffff16565b611f4290919063ffffffff16565b9050600260009054906101000a900473ffffffffffffffffffffffffffffffffffffffff1673ffffffffffffffffffffffffffffffffffffffff166340c10f1933836040518363ffffffff1660e01b8152600401610d0c929190612715565b600060405180830381600087803b158015610d2657600080fd5b505af1158015610d3a573d6000803e3d6000fd5b5050505060003373ffffffffffffffffffffffffffffffffffffffff1647604051610d64906126ae565b60006040518083038185875af1925050503d8060008114610da1576040519150601f19603f3d011682016040523d82523d6000602084013e610da6565b606091505b5050905080610dea576040517f08c379a0000000000000000000000000000000000000000000000000000000008152600401610de190612822565b60405180910390fd5b505050505050505050565b60096020528060005260406000206000915090505481565b60606000600267ffffffffffffffff811115610e52577f4e487b7100000000000000000000000000000000000000000000000000000000600052604160045260246000fd5b604051908082528060200260200182016040528015610e805781602001602082028036833780820191505090505b50905060008054906101000a900473ffffffffffffffffffffffffffffffffffffffff1673ffffffffffffffffffffffffffffffffffffffff1663ad5c46486040518163ffffffff1660e01b815260040160206040518083038186803b158015610ee957600080fd5b505afa158015610efd573d6000803e3d6000fd5b505050506040513d601f19601f82011682018060405250810190610f2191906122ef565b81600081518110610f5b577f4e487b7100000000000000000000000000000000000000000000000000000000600052603260045260246000fd5b602002602001019073ffffffffffffffffffffffffffffffffffffffff16908173ffffffffffffffffffffffffffffffffffffffff16815250508281600181518110610fd0577f4e487b7100000000000000000000000000000000000000000000000000000000600052603260045260246000fd5b602002602001019073ffffffffffffffffffffffffffffffffffffffff16908173ffffffffffffffffffffffffffffffffffffffff168152505080915050919050565b85600860008373ffffffffffffffffffffffffffffffffffffffff1673ffffffffffffffffffffffffffffffffffffffff1681526020019081526020016000205461105e919061299d565b600860008373ffffffffffffffffffffffffffffffffffffffff1673ffffffffffffffffffffffffffffffffffffffff1681526020019081526020016000208190555084600960008373ffffffffffffffffffffffffffffffffffffffff1673ffffffffffffffffffffffffffffffffffffffff168152602001908152602001600020546110ec919061299d565b600960008373ffffffffffffffffffffffffffffffffffffffff1673ffffffffffffffffffffffffffffffffffffffff1681526020019081526020016000208190555083600a60008373ffffffffffffffffffffffffffffffffffffffff1673ffffffffffffffffffffffffffffffffffffffff1681526020019081526020016000205461117a919061299d565b600a60008373ffffffffffffffffffffffffffffffffffffffff1673ffffffffffffffffffffffffffffffffffffffff1681526020019081526020016000208190555082600b60008373ffffffffffffffffffffffffffffffffffffffff1673ffffffffffffffffffffffffffffffffffffffff16815260200190815260200160002054611208919061299d565b600b60008373ffffffffffffffffffffffffffffffffffffffff1673ffffffffffffffffffffffffffffffffffffffff1681526020019081526020016000208190555081600c60008373ffffffffffffffffffffffffffffffffffffffff1673ffffffffffffffffffffffffffffffffffffffff16815260200190815260200160002054611296919061299d565b600c60008373ffffffffffffffffffffffffffffffffffffffff1673ffffffffffffffffffffffffffffffffffffffff16815260200190815260200160002081905550505050505050565b60606000600267ffffffffffffffff811115611326577f4e487b7100000000000000000000000000000000000000000000000000000000600052604160045260246000fd5b6040519080825280602002602001820160405280156113545781602001602082028036833780820191505090505b5090508281600081518110611392577f4e487b7100000000000000000000000000000000000000000000000000000000600052603260045260246000fd5b602002602001019073ffffffffffffffffffffffffffffffffffffffff16908173ffffffffffffffffffffffffffffffffffffffff168152505060008054906101000a900473ffffffffffffffffffffffffffffffffffffffff1673ffffffffffffffffffffffffffffffffffffffff1663ad5c46486040518163ffffffff1660e01b815260040160206040518083038186803b15801561143257600080fd5b505afa158015611446573d6000803e3d6000fd5b505050506040513d601f19601f8201168201806040525081019061146a91906122ef565b816001815181106114a4577f4e487b7100000000000000000000000000000000000000000000000000000000600052603260045260246000fd5b602002602001019073ffffffffffffffffffffffffffffffffffffffff16908173ffffffffffffffffffffffffffffffffffffffff168152505080915050919050565b600260009054906101000a900473ffffffffffffffffffffffffffffffffffffffff1681565b6000600860003373ffffffffffffffffffffffffffffffffffffffff1673ffffffffffffffffffffffffffffffffffffffff1681526020019081526020016000205490506000600960003373ffffffffffffffffffffffffffffffffffffffff1673ffffffffffffffffffffffffffffffffffffffff1681526020019081526020016000205490506000600a60003373ffffffffffffffffffffffffffffffffffffffff1673ffffffffffffffffffffffffffffffffffffffff1681526020019081526020016000205490506000600b60003373ffffffffffffffffffffffffffffffffffffffff1673ffffffffffffffffffffffffffffffffffffffff1681526020019081526020016000205490506000600c60003373ffffffffffffffffffffffffffffffffffffffff1673ffffffffffffffffffffffffffffffffffffffff16815260200190815260200160002054905061168f600260009054906101000a900473ffffffffffffffffffffffffffffffffffffffff16333089611f58565b6116bc600260009054906101000a900473ffffffffffffffffffffffffffffffffffffffff163088612091565b600260009054906101000a900473ffffffffffffffffffffffffffffffffffffffff1673ffffffffffffffffffffffffffffffffffffffff16639dc29fac30886040518363ffffffff1660e01b8152600401611719929190612715565b600060405180830381600087803b15801561173357600080fd5b505af1158015611747573d6000803e3d6000fd5b5050505061179b600360009054906101000a900473ffffffffffffffffffffffffffffffffffffffff16600160009054906101000a900473ffffffffffffffffffffffffffffffffffffffff163088611f58565b6117e8600360009054906101000a900473ffffffffffffffffffffffffffffffffffffffff1660008054906101000a900473ffffffffffffffffffffffffffffffffffffffff1687612091565b611838600460009054906101000a900473ffffffffffffffffffffffffffffffffffffffff16600160009054906101000a900473ffffffffffffffffffffffffffffffffffffffff163087611f58565b611885600460009054906101000a900473ffffffffffffffffffffffffffffffffffffffff1660008054906101000a900473ffffffffffffffffffffffffffffffffffffffff1686612091565b6118d5600560009054906101000a900473ffffffffffffffffffffffffffffffffffffffff16600160009054906101000a900473ffffffffffffffffffffffffffffffffffffffff163086611f58565b611922600560009054906101000a900473ffffffffffffffffffffffffffffffffffffffff1660008054906101000a900473ffffffffffffffffffffffffffffffffffffffff1685612091565b611972600660009054906101000a900473ffffffffffffffffffffffffffffffffffffffff16600160009054906101000a900473ffffffffffffffffffffffffffffffffffffffff163085611f58565b6119bf600660009054906101000a900473ffffffffffffffffffffffffffffffffffffffff1660008054906101000a900473ffffffffffffffffffffffffffffffffffffffff1684612091565b611a0f600760009054906101000a900473ffffffffffffffffffffffffffffffffffffffff16600160009054906101000a900473ffffffffffffffffffffffffffffffffffffffff163084611f58565b611a5c600760009054906101000a900473ffffffffffffffffffffffffffffffffffffffff1660008054906101000a900473ffffffffffffffffffffffffffffffffffffffff1683612091565b6000600f42611a6b919061299d565b905060008054906101000a900473ffffffffffffffffffffffffffffffffffffffff1673ffffffffffffffffffffffffffffffffffffffff166318cbafe5876000611ad7600360009054906101000a900473ffffffffffffffffffffffffffffffffffffffff166112e1565b33866040518663ffffffff1660e01b8152600401611af995949392919061285d565b600060405180830381600087803b158015611b1357600080fd5b505af1158015611b27573d6000803e3d6000fd5b505050506040513d6000823e3d601f19601f82011682018060405250810190611b509190612318565b5060008054906101000a900473ffffffffffffffffffffffffffffffffffffffff1673ffffffffffffffffffffffffffffffffffffffff166318cbafe5866000611bbb600460009054906101000a900473ffffffffffffffffffffffffffffffffffffffff166112e1565b33866040518663ffffffff1660e01b8152600401611bdd95949392919061285d565b600060405180830381600087803b158015611bf757600080fd5b505af1158015611c0b573d6000803e3d6000fd5b505050506040513d6000823e3d601f19601f82011682018060405250810190611c349190612318565b5060008054906101000a900473ffffffffffffffffffffffffffffffffffffffff1673ffffffffffffffffffffffffffffffffffffffff166318cbafe5856000611c9f600560009054906101000a900473ffffffffffffffffffffffffffffffffffffffff166112e1565b33866040518663ffffffff1660e01b8152600401611cc195949392919061285d565b600060405180830381600087803b158015611cdb57600080fd5b505af1158015611cef573d6000803e3d6000fd5b505050506040513d6000823e3d601f19601f82011682018060405250810190611d189190612318565b5060008054906101000a900473ffffffffffffffffffffffffffffffffffffffff1673ffffffffffffffffffffffffffffffffffffffff166318cbafe5846000611d83600660009054906101000a900473ffffffffffffffffffffffffffffffffffffffff166112e1565b33866040518663ffffffff1660e01b8152600401611da595949392919061285d565b600060405180830381600087803b158015611dbf57600080fd5b505af1158015611dd3573d6000803e3d6000fd5b505050506040513d6000823e3d601f19601f82011682018060405250810190611dfc9190612318565b5060008054906101000a900473ffffffffffffffffffffffffffffffffffffffff1673ffffffffffffffffffffffffffffffffffffffff166318cbafe5836000611e67600760009054906101000a900473ffffffffffffffffffffffffffffffffffffffff166112e1565b33866040518663ffffffff1660e01b8152600401611e8995949392919061285d565b600060405180830381600087803b158015611ea357600080fd5b505af1158015611eb7573d6000803e3d6000fd5b505050506040513d6000823e3d601f19601f82011682018060405250810190611ee09190612318565b5050505050505050565b600e8060000154908060010154905082565b60086020528060005260406000206000915090505481565b600a6020528060005260406000206000915090505481565b60008183611f3a9190612a24565b905092915050565b60008183611f5091906129f3565b905092915050565b6000808573ffffffffffffffffffffffffffffffffffffffff166323b872dd868686604051602401611f8c939291906126de565b6040516020818303038152906040529060e01b6020820180517bffffffffffffffffffffffffffffffffffffffffffffffffffffffff8381831617835250505050604051611fda9190612697565b6000604051808303816000865af19150503d8060008114612017576040519150601f19603f3d011682016040523d82523d6000602084013e61201c565b606091505b509150915081801561204a57506000815114806120495750808060200190518101906120489190612359565b5b5b612089576040517f08c379a0000000000000000000000000000000000000000000000000000000008152600401612080906127e2565b60405180910390fd5b505050505050565b6000808473ffffffffffffffffffffffffffffffffffffffff1663095ea7b385856040516024016120c3929190612715565b6040516020818303038152906040529060e01b6020820180517bffffffffffffffffffffffffffffffffffffffffffffffffffffffff83818316178352505050506040516121119190612697565b6000604051808303816000865af19150503d806000811461214e576040519150601f19603f3d011682016040523d82523d6000602084013e612153565b606091505b5091509150818015612181575060008151148061218057508080602001905181019061217f9190612359565b5b5b6121c0576040517f08c379a00000000000000000000000000000000000000000000000000000000081526004016121b790612802565b60405180910390fd5b5050505050565b60006121da6121d584612911565b6128e0565b905080838252602082019050828560208602820111156121f957600080fd5b60005b85811015612229578161220f88826122b1565b8452602084019350602083019250506001810190506121fc565b5050509392505050565b60008135905061224281612be0565b92915050565b60008151905061225781612be0565b92915050565b600082601f83011261226e57600080fd5b815161227e8482602086016121c7565b91505092915050565b60008151905061229681612bf7565b92915050565b6000813590506122ab81612c0e565b92915050565b6000815190506122c081612c0e565b92915050565b6000602082840312156122d857600080fd5b60006122e684828501612233565b91505092915050565b60006020828403121561230157600080fd5b600061230f84828501612248565b91505092915050565b60006020828403121561232a57600080fd5b600082015167ffffffffffffffff81111561234457600080fd5b6123508482850161225d565b91505092915050565b60006020828403121561236b57600080fd5b600061237984828501612287565b91505092915050565b60006020828403121561239457600080fd5b60006123a28482850161229c565b91505092915050565b600080604083850312156123be57600080fd5b60006123cc8582860161229c565b92505060206123dd8582860161229c565b9150509250929050565b60008060008060008060c0878903121561240057600080fd5b600061240e89828a0161229c565b965050602061241f89828a0161229c565b955050604061243089828a0161229c565b945050606061244189828a0161229c565b935050608061245289828a0161229c565b92505060a061246389828a01612233565b9150509295509295509295565b600061247c8383612488565b60208301905092915050565b61249181612a7e565b82525050565b6124a081612a7e565b82525050565b60006124b18261294d565b6124bb8185612970565b93506124c68361293d565b8060005b838110156124f75781516124de8882612470565b97506124e983612963565b9250506001810190506124ca565b5085935050505092915050565b600061250f82612958565b6125198185612981565b9350612529818560208601612b20565b80840191505092915050565b61253e81612ac6565b82525050565b61254d81612aea565b82525050565b61255c81612b0e565b82525050565b600061256f60318361298c565b91507f5472616e7366657248656c7065723a3a7472616e7366657246726f6d3a20747260008301527f616e7366657246726f6d206661696c65640000000000000000000000000000006020830152604082019050919050565b60006125d5602b8361298c565b91507f5472616e7366657248656c7065723a3a73616665417070726f76653a2061707060008301527f726f7665206661696c65640000000000000000000000000000000000000000006020830152604082019050919050565b600061263b600083612981565b9150600082019050919050565b6000612655600d8361298c565b91507f726566756e64206661696c6564000000000000000000000000000000000000006000830152602082019050919050565b61269181612abc565b82525050565b60006126a38284612504565b915081905092915050565b60006126b98261262e565b9150819050919050565b60006020820190506126d86000830184612497565b92915050565b60006060820190506126f36000830186612497565b6127006020830185612497565b61270d6040830184612688565b949350505050565b600060408201905061272a6000830185612497565b6127376020830184612688565b9392505050565b6000602082019050818103600083015261275881846124a6565b905092915050565b60006020820190506127756000830184612535565b92915050565b60006020820190506127906000830184612544565b92915050565b60006080820190506127ab6000830187612553565b81810360208301526127bd81866124a6565b90506127cc6040830185612497565b6127d96060830184612688565b95945050505050565b600060208201905081810360008301526127fb81612562565b9050919050565b6000602082019050818103600083015261281b816125c8565b9050919050565b6000602082019050818103600083015261283b81612648565b9050919050565b60006020820190506128576000830184612688565b92915050565b600060a0820190506128726000830188612688565b61287f6020830187612553565b818103604083015261289181866124a6565b90506128a06060830185612497565b6128ad6080830184612688565b9695505050505050565b60006040820190506128cc6000830185612688565b6128d96020830184612688565b9392505050565b6000604051905081810181811067ffffffffffffffff8211171561290757612906612bb1565b5b8060405250919050565b600067ffffffffffffffff82111561292c5761292b612bb1565b5b602082029050602081019050919050565b6000819050602082019050919050565b600081519050919050565b600081519050919050565b6000602082019050919050565b600082825260208201905092915050565b600081905092915050565b600082825260208201905092915050565b60006129a882612abc565b91506129b383612abc565b9250827fffffffffffffffffffffffffffffffffffffffffffffffffffffffffffffffff038211156129e8576129e7612b53565b5b828201905092915050565b60006129fe82612abc565b9150612a0983612abc565b925082612a1957612a18612b82565b5b828204905092915050565b6000612a2f82612abc565b9150612a3a83612abc565b9250817fffffffffffffffffffffffffffffffffffffffffffffffffffffffffffffffff0483118215151615612a7357612a72612b53565b5b828202905092915050565b6000612a8982612a9c565b9050919050565b60008115159050919050565b600073ffffffffffffffffffffffffffffffffffffffff82169050919050565b6000819050919050565b6000612ad182612ad8565b9050919050565b6000612ae382612a9c565b9050919050565b6000612af582612afc565b9050919050565b6000612b0782612a9c565b9050919050565b6000612b1982612abc565b9050919050565b60005b83811015612b3e578082015181840152602081019050612b23565b83811115612b4d576000848401525b50505050565b7f4e487b7100000000000000000000000000000000000000000000000000000000600052601160045260246000fd5b7f4e487b7100000000000000000000000000000000000000000000000000000000600052601260045260246000fd5b7f4e487b7100000000000000000000000000000000000000000000000000000000600052604160045260246000fd5b612be981612a7e565b8114612bf457600080fd5b50565b612c0081612a90565b8114612c0b57600080fd5b50565b612c1781612abc565b8114612c2257600080fd5b5056fea2646970667358221220cb22c7888a61fd4aaea666c5d50eb809bdcfb5bbf90b7d1c469671b37e4a150b64736f6c63430008000033",
  "immutableReferences": {},
  "source": "// SPDX-License-Identifier: MIT\npragma solidity >=0.4.22 <0.9.0;\n\nimport \"./IPancakeRouter02.sol\";\nimport \"@openzeppelin/contracts/utils/math/SafeMath.sol\";\nimport \"@openzeppelin/contracts/access/Ownable.sol\";\nimport \"@openzeppelin/contracts/token/ERC20/IERC20.sol\";\nimport \"./IToken.sol\";\nimport \"@uniswap/lib/contracts/libraries/TransferHelper.sol\";\n\ncontract NFTPortfolio {\n    address internal constant pancakeSwapAddress =\n        0x10ED43C718714eb63d5aA57B78B54704E256024E; //Router for pancake bsc mainnet\n\n    IPancakeRouter02 public pancakeSwapRouter;\n\n    address private vault = 0x6056773C28c258425Cf9BC8Ba5f86B8031863164;\n\n    IToken public nftToken;\n\n    using SafeMath for uint256;\n\n    address private crypto11 = 0x715D400F88C167884bbCc41C5FeA407ed4D2f8A0; // AXS\n    address private crypto12 = 0x12BB890508c125661E03b09EC06E404bc9289040; // RACA\n    address private crypto13 = 0x3203c9E46cA618C8C1cE5dC67e7e9D75f5da2377; // MBOX\n    address private crypto14 = 0x949D48EcA67b17269629c7194F4b727d4Ef9E5d6; // MC\n    address private crypto15 = 0xAC51066d7bEC65Dc4589368da368b212745d63E8; // ALICE\n\n    mapping(address => uint256) public axsBalance;\n    mapping(address => uint256) public racaBalance;\n    mapping(address => uint256) public mboxBalance;\n    mapping(address => uint256) public mcBalance;\n    mapping(address => uint256) public aliceBalance;\n\n    struct rate {\n        uint256 numerator;\n        uint256 denominator;\n    }\n    mapping(address => uint256) admins;\n    rate public currentRate;\n\n    constructor() {\n        pancakeSwapRouter = IPancakeRouter02(pancakeSwapAddress);\n        nftToken = IToken(0x16dBB234A9a595967DdC2ea1bb53379752f09Ad4);\n    }\n\n    function updateRate(uint256 _numerator, uint256 _denominator) public {\n        require(_numerator != 0);\n        require(_denominator != 0);\n        currentRate.numerator = _numerator;\n        currentRate.denominator = _denominator;\n    }\n\n    function setUpDataNFT(\n        uint256 axs,\n        uint256 race,\n        uint256 mbox,\n        uint256 mc,\n        uint256 alice,\n        address user\n    ) public {\n        axsBalance[user] = axsBalance[user] + axs;\n        racaBalance[user] = racaBalance[user] + race;\n        mboxBalance[user] = mboxBalance[user] + mbox;\n        mcBalance[user] = mcBalance[user] + mc;\n        aliceBalance[user] = aliceBalance[user] + alice;\n    }\n\n    function investInFundNFT() public payable {\n        // approve\n        nftToken.approve(address(this), msg.value);\n\n        // update rate\n        updateRate(100, 100);\n\n        uint256[] memory crpyto1Amount;\n        uint256[] memory crpyto2Amount;\n        uint256[] memory crpyto3Amount;\n        uint256[] memory crpyto4Amount;\n        uint256[] memory crpyto5Amount;\n\n        uint256 deadline = block.timestamp + 15; // using now for convenience, for mainnet pass deadline from frontend!\n\n        crpyto1Amount = pancakeSwapRouter.swapExactETHForTokens{\n            value: msg.value / 5\n        }(0, getPathForETH(crypto11), vault, deadline);\n\n        crpyto2Amount = pancakeSwapRouter.swapExactETHForTokens{\n            value: msg.value / 5\n        }(0, getPathForETH(crypto12), vault, deadline);\n\n        crpyto3Amount = pancakeSwapRouter.swapExactETHForTokens{\n            value: msg.value / 5\n        }(0, getPathForETH(crypto13), vault, deadline);\n\n        crpyto4Amount = pancakeSwapRouter.swapExactETHForTokens{\n            value: msg.value / 5\n        }(0, getPathForETH(crypto14), vault, deadline);\n\n        crpyto5Amount = pancakeSwapRouter.swapExactETHForTokens{\n            value: msg.value / 5\n        }(0, getPathForETH(crypto15), vault, deadline);\n\n        setUpDataNFT(\n            crpyto1Amount[1],\n            crpyto2Amount[1],\n            crpyto3Amount[1],\n            crpyto4Amount[1],\n            crpyto5Amount[1],\n            msg.sender\n        );\n        uint256 cryptoAmount = msg.value;\n        uint256 tokenAmount = cryptoAmount.mul(currentRate.numerator).div(\n            currentRate.denominator\n        );\n        nftToken.mint(msg.sender, tokenAmount);\n        // refund leftover ETH to user\n        (bool success, ) = msg.sender.call{value: address(this).balance}(\"\");\n        require(success, \"refund failed\");\n    }\n\n    function withdrawFromFundNFT(uint256 tokenAmount) public payable {\n        uint256 amount1 = axsBalance[msg.sender];\n        uint256 amount2 = racaBalance[msg.sender];\n        uint256 amount3 = mboxBalance[msg.sender];\n        uint256 amount4 = mcBalance[msg.sender];\n        uint256 amount5 = aliceBalance[msg.sender];\n\n        // IDT Token Burn\n        TransferHelper.safeTransferFrom(\n            address(nftToken),\n            msg.sender,\n            address(this),\n            tokenAmount\n        );\n        TransferHelper.safeApprove(\n            address(nftToken),\n            address(this),\n            tokenAmount\n        );\n\n        nftToken.burn(address(this), tokenAmount);\n        // -------------------------------------------------------------------------------------------- //\n\n        //Getting Investment Back From Vault to Contract\n        TransferHelper.safeTransferFrom(\n            address(crypto11),\n            vault,\n            address(this),\n            amount1\n        );\n        TransferHelper.safeApprove(\n            address(crypto11),\n            address(pancakeSwapRouter),\n            amount1\n        );\n\n        TransferHelper.safeTransferFrom(\n            address(crypto12),\n            vault,\n            address(this),\n            amount2\n        );\n        TransferHelper.safeApprove(\n            address(crypto12),\n            address(pancakeSwapRouter),\n            amount2\n        );\n\n        TransferHelper.safeTransferFrom(\n            address(crypto13),\n            vault,\n            address(this),\n            amount3\n        );\n        TransferHelper.safeApprove(\n            address(crypto13),\n            address(pancakeSwapRouter),\n            amount3\n        );\n\n        TransferHelper.safeTransferFrom(\n            address(crypto14),\n            vault,\n            address(this),\n            amount4\n        );\n        TransferHelper.safeApprove(\n            address(crypto14),\n            address(pancakeSwapRouter),\n            amount4\n        );\n\n        TransferHelper.safeTransferFrom(\n            address(crypto15),\n            vault,\n            address(this),\n            amount5\n        );\n        TransferHelper.safeApprove(\n            address(crypto15),\n            address(pancakeSwapRouter),\n            amount5\n        );\n\n        // ------------------------------------------------------------------------------------------------ //\n\n        // Converting back to BNB\n        uint256 deadline = block.timestamp + 15;\n\n        pancakeSwapRouter.swapExactTokensForETH(\n            amount1,\n            0,\n            getPathForToken(crypto11),\n            msg.sender,\n            deadline\n        );\n        pancakeSwapRouter.swapExactTokensForETH(\n            amount2,\n            0,\n            getPathForToken(crypto12),\n            msg.sender,\n            deadline\n        );\n        pancakeSwapRouter.swapExactTokensForETH(\n            amount3,\n            0,\n            getPathForToken(crypto13),\n            msg.sender,\n            deadline\n        );\n        pancakeSwapRouter.swapExactTokensForETH(\n            amount4,\n            0,\n            getPathForToken(crypto14),\n            msg.sender,\n            deadline\n        );\n        pancakeSwapRouter.swapExactTokensForETH(\n            amount5,\n            0,\n            getPathForToken(crypto15),\n            msg.sender,\n            deadline\n        );\n    }\n\n    // function addLiquidity() public payable{\n    //   uint deadline = block.timestamp + 15;\n    //   token.approve(pancakeSwapAddress,1000000000000000000000000000);\n    //   // pancakeSwapRouter.addLiquidityEth{value: msg.value}();\n    // }\n    function getPathForETH(address crypto)\n        public\n        view\n        returns (address[] memory)\n    {\n        address[] memory path = new address[](2);\n        path[0] = pancakeSwapRouter.WETH();\n        path[1] = crypto;\n        return path;\n    }\n\n    function getPathForToken(address token)\n        public\n        view\n        returns (address[] memory)\n    {\n        address[] memory path = new address[](2);\n        path[0] = token;\n        path[1] = pancakeSwapRouter.WETH();\n        return path;\n    }\n\n    function getETH() public view returns (address) {\n        return pancakeSwapRouter.WETH();\n    }\n\n    // important to receive ETH\n    receive() external payable {}\n}\n",
  "sourcePath": "/Users/navinalang/Navina-workgroup/05_create_and_burn/contracts/NFTPortfolio.sol",
  "compiler": {
    "name": "solc",
    "version": "0.8.0+commit.c7dfd78e.Emscripten.clang"
  },
  "schemaVersion": "3.4.6",
  "updatedAt": "2022-04-11T18:27:42.228Z",
  "devdoc": {
    "kind": "dev",
    "methods": {},
    "version": 1
  },
  "userdoc": {
    "kind": "user",
    "methods": {},
    "version": 1
  }
}